:100000000C9423080C944B080C944B080C944B084C
:100010000C944B080C944B080C944B080C944B0814
:100020000C944B080C944B080C944B080C944B0804
:100030000C944B080C944B080C945A210C94FD2101
:100040000C944B080C942C210C9406210C944B0816
:100050000C944B080C944B080C944B080C944B08D4
:100060000C944B080C94DE200C944B080C944B0819
:100070000C944B080C944B080C944B080C944B08B4
:100080000C944B080C944B080C944B080C944B08A4
:100090000C944B080C944B08FEC70000FCC70000F2
:1000A0004552524F52202D20436F6D6D616E64207A
:1000B000627566666572206F766572666C6F772111
:1000C00000556E7265636F676E697A656420636F51
:1000D0006D6D616E640020616E64200056616C6914
:1000E000642072616E67652069732062657477654C
:1000F000656E2000536574206465766963652070C1
:1001000072696D61727920616464726573732074C1
:100110006F3A200054686174206973206D79206102
:100120006464726573732120416464726573732023
:100130006F6620612072656D6F74652064657669F5
:1001400063652069732072657175697265642E003C
:10015000206D696C6C697365636F6E6473005365C1
:1001600074205B726561645F746D6F5F6D735D2099
:10017000746F3A200053657420454F5320746F3AD2
:10018000200053657420454F492061737365727474
:10019000696F6E3A2000496E74657266616365200E
:1001A0006D6F64652073657420746F3A2000417030
:1001B00070656E64696E67206F6620454F542063DA
:1001C00068617261637465723A2000454F54207310
:1001D000657420746F2041534349492063686172FC
:1001E00061637465723A20004175746F206D6F64AD
:1001F000653A200020202020202020202027616434
:100200006472657373656420746F2074616C6B2015
:10021000627574206E6F7468696E6720746F2073E6
:10022000617927206572726F7273005741524E498F
:100230004E473A206175746F6D6F6465204F4E2094
:1002400063616E20636175736520736F6D652064F3
:1002500065766963657320746F2067656E6572618A
:100260007465004152343838204750494220636F4A
:100270006E74726F6C6C65722C207665722E2030F5
:100280002E35312E32392D6574685F6164646F6E6E
:100290002C2031382F30352F323032340041523457
:1002A0003838204750494220636F6E74726F6C6C0F
:1002B00065722C207665722E20302E35312E323923
:1002C0002D6574685F6164646F6E2C2031382F3047
:1002D000352F3230323400496E76616C696420709B
:1002E0006172616D65746572202D2069676E6F7231
:1002F000656421004661696C656420746F207365D4
:100300006E6420534443004661696C656420746FD9
:100310002073656E64204C4C4F21004661696C650A
:100320006420746F2073656E6420756E69766572E3
:1003300073616C204C4C4F2E004661696C656420E3
:10034000746F2073656E64204C4F4321004946430F
:10035000207369676E616C20617373657274656484
:1003600020666F7220313530206D6963726F73655E
:10037000636F6E64730047726F7570207472696783
:1003800067657220636F6D706C657465642E0046DE
:1003900061696C656420746F207472696767657247
:1003A0002064657669636521005265736574204633
:1003B00041494C45442E0053657269616C20706F51
:1003C0006C6C20636F6D706C657465642E004661A3
:1003D000696C656420746F207265747269657665F6
:1003E0002073746174757320627974652066726F0E
:1003F0006D20005D2066726F6D20646576696365AF
:1004000020617420616464726573733A20005265E0
:1004100063656976656420737461747573206279AD
:100420007465205B002C005352513A00496E76618E
:100430006C696420706172616D65746572005365EA
:100440007269616C20706F6C6C206F6620616C6CDF
:100450002064657669636573207265717565737470
:1004600065642E2E2E0053657474696E6773207355
:10047000617665642E004C4F4E3A20005D00205B93
:10048000002B2B00616464723A5020446973706CD5
:1004900061792F7365742064657669636520616492
:1004A00064726573730A6175746F3A502041757494
:1004B0006F6D61746963616C6C79207265717565CB
:1004C00073742074616C6B20616E6420726561646A
:1004D00020726573706F6E73650A636C723A502098
:1004E00053656E642053656C656374656420446570
:1004F0007669636520436C65617220746F20637553
:100500007272656E7420475049422061646472655E
:1005100073730A656F693A5020456E61626C652F8E
:1005200064697361626C6520617373657274696F6D
:100530006E206F6620454F49207369676E616C0AB3
:10054000656F723A502053686F77206F7220736521
:100550007420656E64206F662072656365697665D8
:10056000206368617261637465722873290A656F1C
:10057000733A502053706563696679204750494249
:10058000207465726D696E6174696F6E2063686155
:100590007261637465720A656F745F636861723A51
:1005A00050205365742063686172616374657220C2
:1005B000746F20617070656E6420746F20555342B3
:1005C000206F7574707574207768656E20454F5480
:1005D00020656E61626C65640A656F745F656E614B
:1005E000626C653A5020456E61626C652F44697398
:1005F00061626C6520617070656E64696E672075FC
:1006000073657220737065636966696564206368E9
:100610006172616374657220746F20555342206F5C
:100620007574707574206F6E20454F492064657431
:10063000656374696F6E0A68656C703A502054681F
:100640006973206D6573736167650A6966633A5003
:100650002041737365727420494643207369676E45
:10066000616C20666F7220313530206D6973636F65
:100670007365636F6E6473202D206D616B6520411F
:100680005234383820636F6E74726F6C6C657220F0
:10069000696E206368617267650A6C6C6F3A5020FE
:1006A0004C6F63616C206C6F636B6F7574202D20D1
:1006B00064697361626C652066726F6E742070612C
:1006C0006E656C206F7065726174696F6E206F6EFD
:1006D00020696E737472756D656E740A6C6F633A1F
:1006E0005020456E61626C652066726F6E7420707A
:1006F000616E656C206F7065726174696F6E206FDA
:100700006E20696E737472756D656E740A6C6F6EAF
:100710003A502050757420636F6E74726F6C6C6504
:100720007220696E206C697374656E2D6F6E6C79C2
:10073000206D6F646520286C697374656E20746F1A
:1007400020616C6C2074726166666963290A6D6F42
:1007500064653A50205365742074686520696E742E
:10076000657266616365206D6F64652028313D6345
:100770006F6E74726F6C6C65722F303D6465766954
:100780006365290A726561643A502052656164208C
:10079000646174612066726F6D20696E7374727526
:1007A0006D656E740A726561645F746D6F5F6D7301
:1007B0003A5020526561642074696D656F757420CC
:1007C00073706563696669656420626574776565E1
:1007D0006E2031202D2033303030206D696C6C69F3
:1007E0007365636F6E64730A7273743A5020526556
:1007F0007365742074686520636F6E74726F6C6CBF
:1008000065720A736176656366673A502053617654
:100810006520636F6E666967726174696F6E0A73D3
:10082000706F6C6C3A502053657269616C20706F08
:100830006C6C2074686520616464726573736564B0
:1008400020686F7374206F7220616C6C20696E7306
:100850007472756D656E74730A7372713A502052BA
:10086000657475726E20737461747573206F662081
:10087000737271207369676E616C2028312D7372F9
:10088000712061737365727465642F302D7372719A
:10089000206E6F74206173736572746564290A73C6
:1008A00074617475733A50205365742074686520C0
:1008B000737461747573206279746520746F20623B
:1008C000652072657475726E6564206F6E20626556
:1008D000696E6720706F6C6C656420286269742093
:1008E00036203D205251532C20692E652053525101
:1008F000206173736572746564290A7472673A5073
:100900002053656E64207472696767657220746F26
:100910002073656C656374656420646576696365DE
:10092000732028757020746F2031352061646472E3
:100930006573736573290A7665723A50204469734A
:10094000706C6179206669726D7761726520766579
:100950007273696F6E0A6173706F6C6C3A432053E7
:10096000657269616C20706F6C6C20616C6C2069C1
:100970006E737472756D656E74732028616C696135
:10098000733A202B2B73706F6C6C20616C6C290A8E
:1009900064636C3A432053656E6420756E616464D1
:1009A0007265737365642028616C6C2920646576B8
:1009B00069636520636C65617220205B706F776589
:1009C00072206F6E2072657365745D2028697320D4
:1009D000746865207273743F290A64656661756C7A
:1009E000743A432053657420636F6E66696775724D
:1009F0006174696F6E20746F20636F6E74726F6CB8
:100A00006C65722064656661756C742073657474BE
:100A1000696E67730A69643A432053686F77206987
:100A20006E7465726661636520494420696E666F05
:100A3000726D6174696F6E202D2073656520616C25
:100A4000736F3A20276964206E616D65273B20270C
:100A500069642073657269616C273B202769642093
:100A6000766572737472270A6964206E616D653AE7
:100A7000432053686F772F53657420746865206E28
:100A8000616D65206F662074686520696E7465729B
:100A9000666163650A69642073657269616C3A43D3
:100AA0002053686F772F53657420746865207365D1
:100AB0007269616C206E756D626572206F6620745C
:100AC000686520696E746572666163650A69642091
:100AD0007665727374723A432053686F772F53654B
:100AE00074207468652076657273696F6E20737404
:100AF00072696E672073656E7420696E207265700E
:100B00006C7920746F202B2B76657220652E672EF2
:100B10002022475049422D55534222292E204D6113
:100B2000782034372063686172732C2065786365A0
:100B30007373207472756E63617465642E0A6964E0
:100B40006E3A4320456E61626C652F446973616241
:100B50006C65207265706C7920746F202A69646EF0
:100B60003F202864697361626C6564206279206447
:100B7000656661756C74290A6D6163726F3A432012
:100B800052756E2061206D6163726F202869662046
:100B90006D6163726F20737570706F72742069730A
:100BA00020636F6D70696C6564290A70706F6C6C7E
:100BB0003A4320436F6E64756374206120706172E4
:100BC000616C6C656C20706F6C6C0A72656E3A4378
:100BD00020417373657274206F7220556E61737358
:100BE000657274207468652052454E207369676E83
:100BF000616C0A7265706561743A43205265706574
:100C00006174206120676976656E20636F6D6D6128
:100C10006E6420616E642072657475726E207265F8
:100C200073756C740A736574767374723A432044F6
:100C3000455052454341544544202D20736565205D
:100C40006964207665727374720A73727161757467
:100C50006F3A43204175746F6D61746963616C6CA8
:100C60007920636F6E647563742073657269616C5B
:100C700020706F6C6C207768656E2053525120692C
:100C8000732061737365727465640A7463743A43A4
:100C9000205369676E616C2072656D6F74652064A6
:100CA000657669636520746F2074616B6520636F7E
:100CB0006E74726F6C0A746F6E3A432050757420B4
:100CC000636F6E74726F6C6C657220696E207461F4
:100CD0006C6B2D6F6E6C79206D6F64652028736569
:100CE0006E642064617461206F6E6C79290A766588
:100CF00072626F73653A4320566572626F73652046
:100D00002868756D616E207265616461626C652929
:100D1000206D6F64650A78646961673A43204275A3
:100D20007320646961676E6F7374696373202873DD
:100D300065652074686520646F63290A0053656ED9
:100D400064696E672044434C206661696C65640089
:100D500053657420454F5220746F3A2000506172E1
:100D6000616C6C656C20706F6C6C20636F6D706C67
:100D7000657465642E0052454E3A200050524F4D26
:100D80003A20004F4646004F4E20627566666572F7
:100D90006564004F4E20756E6275666665726564A7
:100DA00000544F4E3A20004D697373696E6720708E
:100DB0006172616D6574657273004D697373696EFC
:100DC0006720706172616D65746572005377697434
:100DD0006368656420746F20646576696365206D5F
:100DE0006F64652E00207375636365656465642EAA
:100DF00000206661696C6564210053656E64696EEC
:100E0000672054435420746F2064657669636520BD
:100E10006174206164647265737320005468617446
:100E2000206973206D792061646472657373212079
:100E3000506C656173652070726F766964652074AB
:100E400068652061646472657373206F6620612039
:100E500072656D6F7465206465766963652E004404
:100E6000697361626C656400496E76616C69643AAD
:100E700020303D64617461206275733B20313D63B5
:100E80006F6E74726F6C2062757300415234383823
:100E9000204750494220636F6E74726F6C6C6572AC
:100EA0002C207665722E20302E35312E32392D656C
:100EB00074685F6164646F6E2C2031382F30352F79
:100EC000323032340053657269616C206E756D6228
:100ED0006572206D757374206E6F7420657863651C
:100EE000656420392063686172616374657273217F
:100EF000004C656E677468206F66206E616D6520BA
:100F00006D757374206E6F742065786365656420F9
:100F10003135206368617261637465727321004CBE
:100F2000656E677468206F662076657273696F6E90
:100F300020737472696E67206D757374206E6F74A0
:100F40002065786365656420343820636861726168
:100F5000637465727321005665725374723A20008F
:100F600020776974682073657269616C206E756D95
:100F70006265720053656E64696E672049444E3A3B
:100F800020004661696C656420746F2073656E642F
:100F9000204D4C41004661696C656420746F20737C
:100FA000656E64204D5441004661696C656420742F
:100FB0006F2073656E64204D5341004661696C6516
:100FC0006420746F2073656E6420554E4C0046613A
:100FD000696C656420746F2073656E6420554E548F
:100FE00000676574436D643A20636F6D6D616E6474
:100FF000206E6F7420617661696C61626C65206936
:101000006E2074686973206D6F64652E005265737D
:101010006574206661696C65642E00526573657441
:1010200074696E672E2E2E004572726F722077687B
:10103000696C6520726563656976696E67206461B5
:1010400074612E00B52211241FBECFEFCDBFDFE3A8
:10105000DEBF18E2A0E0B8E2E6EFFFE502C00590CF
:101060000D92A630B107D9F72AE2A6E0B8E201C096
:101070001D92A435B207E1F718E0C3E2D8E004C03E
:101080002197FE010E948F2BC232D107C9F70E941F
:1010900063230C940E2E0C9400008091B028909144
:1010A000B128891B990B0895E5EFF9E283E5DF018B
:1010B0001D928A95E9F782E0828381E0848380EB48
:1010C00094E0818792870895E5EFF9E268E47AE297
:1010D0002FEF3FEF81918327982F92959F7089275B
:1010E000482F50E0922F9A01322F22273295307FDD
:1010F000822793279A01B5E0220F331FBA95E1F7B3
:10110000282739276E177F0729F7C9010895FC01A1
:10111000508D418D252F30E0842F90E0821B930B62
:10112000541710F0CF96089501970895FC01968901
:101130008789981761F0A789AE0FBF2FB11D5D9603
:101140008C9197899F5F9F73978B90E008958FEFA5
:101150009FEF0895FC0196898789981731F0878958
:10116000E80FF11D858D90E008958FEF9FEF0895B2
:10117000FC0196892789892F90E0805C9F4F821B14
:1011800091098F7399270895CF93DF93EC01E8813C
:10119000F9810680F781E02D0995EC85FD85868132
:1011A0008F738683EC85FD8585818F7585838F8917
:1011B0008E8B1D8ADF91CF910895FC01613019F467
:1011C000648B81E00895148A6623D9F380E0089542
:1011D000DC0154961C92549754968C91549782300B
:1011E000A0F4282F30E0F901EE0FFF1FE20FF31FEC
:1011F000EA0FFB1F9785961303C09685941749F055
:101200008F5F54968C935497E7CF54961C9280E04E
:10121000089581E00895CF93DF93FC01908D818D37
:10122000C485D585981306C08D818F7D8D83DF9110
:10123000CF910895A18DAE0FBF2FB11DA35ABF4FFF
:101240002C91818D90E001968F739927818F80E496
:101250008C83A485B58512962C93908D818D9813DF
:10126000E6CFA485B58515968C9115978F7D15963B
:101270008C93838D8823D9F2848D80931301138EF0
:10128000D6CFDC011C96ED91FC910FB607FE03C092
:10129000258125FD03C0248125FDBDCF0895EF9252
:1012A000FF920F931F93CF93DF93EC0181E08D8B1F
:1012B000988D898D98131CC0AC85BD8514968C9132
:1012C000149785FF15C012966C93AC85BD8580E49C
:1012D00014968C93EC85FD8585818F7D858381E0D7
:1012E00090E0DF91CF911F910F91FF90EF900895C3
:1012F0008091110180FF08C0809113018C8F8A8D2D
:101300008093130181E08B8FF62E088D10E00F5F24
:101310001F4F0F731127E02E898D8E1103C0CE0150
:10132000B0DFFACFE88DEC0FFD2FF11DE35AFF4F30
:10133000F082088FEC85FD8585818062CFCFCF93C9
:10134000DF93FC0125892223C1F0EC01809111017A
:1013500080FF08C080911301848F828D80931301D8
:1013600081E0838FEC85FD85858185FD03C08481C7
:1013700086FD03C0CE0185DFF5CFDF91CF910895C3
:1013800087E399E2F5DE21E0892B09F420E0822F42
:10139000089580E090E0892B21F0F2DF81110E9416
:1013A000000080E090E0892B49F080E090E0892BFC
:1013B00029F00E94000081110E94000080E090E06E
:1013C000892B49F080E090E0892B29F00E940000F1
:1013D00081110E94000080E090E0892B49F080E0BC
:1013E00090E0892B29F00E94000081110C940000EC
:1013F0000895CF93DF9390E0FC01E555F2462081FC
:101400002F3F79F0633068F4FC01EE57F246A0817B
:1014100030E2A39FD0011124BC5F613029F4119602
:101420002C93DF91CF910895875A9246EC01E88181
:10143000EF3F81F0CD014096E80FF92FF11D9FB7E6
:10144000F89412962C938081623039F488608083FE
:101450009FBFE7CFF0E0E0E0F2CF877FF8CF90E0EA
:10146000FC01E05DF246E081EE2319F1E13021F06C
:1014700000F1E630A8F00895875A9246FC012081D9
:10148000233008F02F5F3091010A81E090E001C025
:10149000880F2A95EAF7809583238093010A08959F
:1014A00080E1E89FF0011124E05AF54F81818F7EA1
:1014B000818308950F931F93CF93DF93C82FD0E0BC
:1014C000FE01E555F24600810F3F99F0162F893253
:1014D00008F4C5DFFE01EE57F246E08180E2E89FA6
:1014E000F0011124FC5F8081802351F0111106C0AE
:1014F0000683DF91CF911F910F9108950583F9CF56
:10150000C75AD2468881309771F08F3F61F070964C
:10151000E80FF11D9FB7F8948081111107C0877FF4
:1015200080839FBFE6CFF0E0E0E0F4CF8860F8CFA3
:101530000F931F93CF93082F10E0F801E555F24663
:10154000C081CF3F81F0893208F489DFF801EE577E
:10155000F246E08180E2E89FF0011124FC5F808583
:10156000C82381E009F480E0CF911F910F91089585
:10157000893208F43ECF0895AF92BF92CF92DF92A6
:10158000EF92FF920F931F93CF93DF93EC016A01C9
:101590007B01A22E8D89882339F0E881F9810688A4
:1015A000F789E02DCE0109950C8910E0BFB6F894BB
:1015B00060E078E689E899E0A70196010E945E2B39
:1015C00069017A018FEFC81AD80AE80AF80AF69476
:1015D000E794D794C794EC85FD8586818D7F8683BB
:1015E000EC85FD85868186831D8AA09125110A2EB2
:1015F000000CBB0BA70196010E94272B20E034E0D2
:1016000040E050E00E94012BEC85FD85C20ED31E08
:10161000E41EF51EC086D186EC85FD85A782EC858B
:10162000FD858681806C8683EC85FD85858180685B
:1016300085839091E2058B89809589237801EE0C52
:10164000FF1C6701C00ED11ECC0EDD1EF601908975
:10165000892B8093E20562E086858ADFF601878523
:10166000893210F461E026DF0E0D1F1DC00FD11F5F
:1016700061E08F857DDFBFBEDF91CF911F910F911C
:10168000FF90EF90DF90CF90BF90AF900895000053
:101690000000000000009C0127503109880F991FAD
:1016A000880F991F820F931F0197F1F708956FB765
:1016B000F8942091AA283091AB284091AC28509101
:1016C000AD288091AA0A9091AB0A7091A60A70FF8A
:1016D00008C02F5F3F4F4F4F5F4F8091AA0A9091F4
:1016E000AB0A6FBFE92FFF27BC01A4E07695679591
:1016F000AA95E1F7E60FF71FBC01B6E0769567956E
:10170000BA95E1F7E61BF70B892F99278695869501
:10171000E81BF90BA8EEB3E00E941D2B6E0F7F1F94
:10172000811D911D08958F929F92AF92BF92CF928B
:10173000DF92EF92FF924B015C01B9DF6B017C01FC
:10174000A8EEB3E0A50194010E941D2BC60ED71E82
:10175000E81EF91EC616D706E806F90610F4A7DF3C
:10176000F9CFA5DF6C157D058E059F05D0F3FF90A1
:10177000EF90DF90CF90BF90AF909F908F900895A3
:101780002FB7F8946091AA287091AB288091AC286B
:101790009091AD282FBF0895DC01ED91FC9101904F
:1017A000F081E02D0994EF92FF920F931F93CF9356
:1017B000DF938C017B01D0E0C0E0F701EC0FFD1F4F
:1017C0006491662361F0D801ED91FC910190F08164
:1017D000E02DC8010995892B11F02196EECFCE019D
:1017E000DF91CF911F910F91FF90EF900895AF92ED
:1017F000BF92CF92DF92EF92FF920F931F93CF93FE
:10180000DF936C017B018B01040F151FEB015E015F
:10181000AE18BF08C017D10759F06991D601ED91F4
:10182000FC910190F081E02DC6010995892B79F793
:10183000C501DF91CF911F910F91FF90EF90DF9045
:10184000CF90BF90AF90089581E008950F9391E0FD
:101850009093F228109217286093152870931628F9
:1018600040931428209313281092182810921928B6
:1018700000931228880F8093112893E024E0809130
:101880001428882331F09093F328809111288E7FBB
:1018900009C080911328882341F02093F328809178
:1018A000112881608093A70808C0809114288111B5
:1018B00004C080911328882331F38091172888234E
:1018C000E1F3809117288330D1F280911328882387
:1018D00021F0809119280F9108959091172881E0A7
:1018E0009130C9F780E0F7CFE0EAF8E091859066A3
:1018F000918792E09093F32880930B2810920A2806
:10190000089581E080930A2810920B2893E0909329
:10191000AA089091AB0891FF0BC010920F28F0E03D
:10192000E0E0099580930E2885E08093F3280895E0
:101930001092102880930D2886E0F7CF0895E0914B
:10194000B1288091B028E81730F4F0E0EE54F74D5C
:10195000808190E008958FEF9FEF08959091B128D6
:101960008091B0282FEF3FEF981748F4E92FF0E06F
:10197000EE54F74D208130E09F5F9093B128C9016C
:101980000895CF92DF92EF92FF920F931F93CF9320
:10199000DF937C018A01EB016B01C40ED51ECC15CF
:1019A000DD0551F06991D701ED91FC910190F08135
:1019B000E02DC7010995F3CFC801DF91CF911F91A9
:1019C0000F91FF90EF90DF90CF90089520913429F0
:1019D000203440F021E030E0FC012283338390E0AA
:1019E00080E0089580913529E82FF0E0EC50F74D24
:1019F00060838F5F809335298093342981E090E064
:101A00000895EF92FF920F931F93CF93DF93D0E04F
:101A1000C0E0062F10E0E82EF12CC8010C2E02C009
:101A2000959587950A94E2F780FF0FC0C7010C2EA9
:101A300002C0959587950A94E2F762E080FD61E027
:101A4000FE01EC52F246808193DD2196C830D1052B
:101A500021F7DF91CF911F910F91FF90EF900895A3
:101A6000EF92FF920F931F93CF93DF93413039F49E
:101A7000DF91CF911F910F91FF90EF90C2CFD0E0F7
:101A8000C0E0062F10E0E82EF12C98010C2E02C0C9
:101A9000359527950A94E2F720FF0FC0FE01EC521E
:101AA000F2468081893248F4B7010C2E02C0759548
:101AB00067950A94E2F76170FDDC2196C830D10584
:101AC00021F7DF91CF911F910F91FF90EF90089533
:101AD00040E0682FC5CF40E0682F80E0C1CF80E2B2
:101AE000F7DF68E270E080E090E01DDE80EAF3DF7F
:101AF00068E270E080E090E016DE80E8E9CFDF92F7
:101B0000EF92FF920F931F93CF93DF9390E2E92E12
:101B10009CE9F92ED0E0C0E0082F10E0F701D19049
:101B20007F0161E08D2D24DDB8010C2E02C075957A
:101B300067950A94E2F788E28D1530F0609570950C
:101B4000617077278D2DB6DC2196C830D10531F72D
:101B5000DF91CF911F910F91FF90EF90DF9008954B
:101B6000DF92EF92FF920F931F93CF93DF9380E268
:101B7000E82E8CE9F82ED0E0C0E010E001E0DC2E89
:101B8000F70181917F01893298F0802F01C0880F81
:101B9000DA94EAF7180F2196C830D10581F7812F22
:101BA000DF91CF911F910F91FF90EF90DF900895FB
:101BB000BFDC882351F380E0EDCF2F923F924F920C
:101BC0005F926F927F928F929F92AF92BF92CF92CD
:101BD000DF92EF92FF920F931F93CF93DF9300D08A
:101BE00000D0CDB7DEB71C016A838A01C9DD4B0185
:101BF0005C012B013C018FEF481A580A680A780AE9
:101C0000C090FE29D090FF290D2C000CEE08FF0893
:101C100084E18EDC8983F80110821B821C824818C3
:101C200059086A087B084C145D046E047F0408F0B0
:101C300052C08091F729813031F18B819C81892BB1
:101C400081F584E045DF8FE073DC811136C084E0EC
:101C500042DFFA81FF2339F08EE06ADC811103C094
:101C600081E0F80180837CDFF101808382E030DF56
:101C70008FE05EDC813031F582E02DDF81E090E0A5
:101C80008B839C8328C082E153DC882301F19981F6
:101C90009111D3CF84E14CDC882379F283E090E08A
:101CA000EFCFEB81FC81349771F28B819C81069799
:101CB000F9F266DD2B013C01B2CFE4E0F0E0EB830A
:101CC000FC83F7CF86E090E08B839C83F2CFE2E049
:101CD000F0E0EB83FC838B819C812496CDBFDEBF3B
:101CE000DF91CF911F910F91FF90EF90DF90CF90F8
:101CF000BF90AF909F908F907F906F905F904F902C
:101D00003F902F900895CF93DF93C0E2DCE962E02B
:101D100089912EDC8CE9C832D807C9F7DF91CF91C1
:101D20000895FC0180819181FC01FF2790FD06C090
:101D300080E094E1E82BF92B8081089580E093E125
:101D4000F9CF0F931F93CF93DF9300D0CDB7DEB7BA
:101D50008C0119821A82CE010196E3DFF80180839B
:101D600081E090E089839A83CE010196DADFF80161
:101D70008183C8010F900F90DF91CF911F910F9138
:101D80000895FC01FF2790FD12C080E094E1E82B4C
:101D9000F92B60838FB7F8949DE923E094BF2093DB
:101DA00000108FBF8091021081FDFCCF089580E06C
:101DB00093E1EDCFDF92EF92FF920F931F93CF93BA
:101DC000DF9300D0CDB7DEB785EFE82E89E2F82E9D
:101DD00002E010E0F701D1907F0109831A83CE0160
:101DE00001969FDFD81619F06D2DC801CADF0F5F6D
:101DF0001F4F0535110571F767D98C0119821A82B9
:101E0000CE0101968EDF081721F0602F90E080E070
:101E1000B8DF81E090E089839A83CE01019681DF6B
:101E2000181769F0612F81E090E00F900F90DF911B
:101E3000CF911F910F91FF90EF90DF90A2CF0F9065
:101E40000F90DF91CF911F910F91FF90EF90DF9056
:101E500008954115510539F0640F751FFB01319745
:101E60002081FC012487CA010895FC01648781E078
:101E700090E008958FEF9FEF089590E080E008953F
:101E8000DC01ED91FC910488F589E02D23E030E040
:101E9000099490E080E0089507C99091A728E92F60
:101EA000F0E0E95DF74D80839F5F9093A728089548
:101EB0006FEF80E0A6DD40E06FEF8FEFD1CD6EE1F8
:101EC00080E09FDD40E06EE18EE1CACD6EE10297D9
:101ED00031F086E096DD40E06EE188E1C1CD88E139
:101EE00090DD40E06EE18EE1F9CFCF93C82FEEEFA9
:101EF000E80FE83068F4F0E0E058F04F0C948F2BD6
:101F0000960F9A0FA30F9F0FA60FB20FB40FB80F23
:101F100061EE81EA76DD40E061EE81EEA1DDCFDFAA
:101F200080E2D9DDC093482ACF910895C8DF80E8C8
:101F3000CFDDF8CF82E090E0C9DF80E8F2CF81E02A
:101F400090E0C4DFF4CF82E090E0FBCFB1DF80E22D
:101F5000BFDD61EE80E455DD40E061EE81EE80DDC5
:101F6000D2DEE0CFACDFFCCF81E090E0AFDFDACFB4
:101F700082E090E0FBCF8F929F92AF92BF92CF9280
:101F8000DF92EF92FF920F931F93CF93DF93082F6F
:101F9000162FF6DB4B015C016F5F7F4F8F4F9F4F1A
:101FA000C090FE29D090FF290D2C000CEE08FF08F0
:101FB000D0E0C0E0681979098A099B096C157D0594
:101FC0008E059F0508F057C08091F7298130F9F4FC
:101FD00082E1AEDA811112C088E087DFC2E0D0E092
:101FE000CE01DF91CF911F910F91FF90EF90DF9085
:101FF000CF90BF90AF909F908F90089584E198DA32
:10200000811105C088E071DFC3E0D0E0E9CF2097FF
:1020100091F481E18DDA811129C080E189DAC7E08C
:10202000D0E0813019F5802F6ADD8091F629811189
:102030000FC088E010C0C730D10579F3C830D10592
:1020400091F3C930D10541F0CA30D10549F00EC035
:1020500088E1112371F33FDD80E16ADA811108C064
:1020600081E166DA813059F0CAE0D0E089DBA2CFA5
:10207000C9E0D0E0FBCFC130D10509F0B1CF8091EC
:10208000F629811102C088E003C088E11123D9F349
:102090001FDD80E034DDC1E0D0E0A2CFCF93C82FB8
:1020A0008091482A833011F083E01FDF60E08C2F9D
:1020B00062DF21E0019709F420E0822FCF9108959B
:1020C0008EE190E0E4DA8FE3E9DF882311F081E02C
:1020D00008958FE5E3DF8111FACF10924A2A08951F
:1020E000EFCF1F93CF93DF93D82F162F8FE3D6DF39
:1020F000C82F882331F0C1E08C2FDF91CF911F9141
:10210000089580E4111101C080E28D0FC7DF8111B5
:10211000F2CF81E080934A2AEFCF1092482AC8DE9E
:10212000F2DD88EC90E0B3DA81E08093F72986E075
:10213000DCDEE9CDD4DC1092482ABADEE4DD88EC9E
:1021400090E0A5DA82E08093F72981E0CEDEDBDD46
:1021500081E0C1DC86E990E09ADA81E0B9DC809127
:10216000F929823010F060E0BCCF08958F929F92E1
:10217000AF92BF92CF92DF92EF92FF920F931F9395
:10218000CF93DF9300D000D0CDB7DEB76C01162F10
:10219000942E822E19821A821B829091312A092F45
:1021A00007701C821092492A8091F629811139C04A
:1021B000611104C011E0973009F010E08091F72917
:1021C000823089F561E08091F9298BDF85E08DDE31
:1021D0009ADDA02EB12C8091492A81112DC084E175
:1021E000A7D9882349F1AE014C5F5F4F612FCE0123
:1021F0000196E3DC7C0181E0E816F10401F56981D8
:10220000C601CADA112399F08C81882309F450C0E1
:102210008091F5298823B1F06091002AC601BCDACB
:1022200011C0182FCBCF88E060DE11E0D1CF8981BB
:10223000992051F188123CC0EE24E394F12C8C815A
:102240008111E6CF8091F729823009F046C038DF4E
:1022500082E04BDE8091492A81111092492A81E067
:10226000EA94EF2809F480E02496CDBFDEBFDF9129
:10227000CF911F910F91FF90EF90DF90CF90BF9083
:10228000AF909F908F900895073018F5F501E55BAA
:10229000FE4E0C948F2B6911661155115811521175
:1022A0005D1160118D3021F48A818A3009F4C4CF28
:1022B0008A818B8389818A838ECF8330C9F7BCCF93
:1022C0008330B1F78A818A3099F78B818D3081F71D
:1022D000B3CF8A3069F78A81F9CFF1DD14DD87E069
:1022E0008093482AB7CF20E040E060E08091252825
:1022F000909126283BCFAF92BF92CF92DF92EF9280
:10230000FF920F931F93CF938C01E62E8091FB29B0
:10231000813030F0C1E0833020F0C0E0833009F03C
:10232000C2E08091F7298230C1F484E0DEDD6801EB
:1023300010E000E0F12C570181E0A81AB1080E1559
:102340001F056CF5F60181916F019091F629992393
:1023500011F0CC2321F060E006C089E0E7CF61E016
:10236000A016B106C1F707DE019739F50F5F1F4FC1
:10237000E6CF60E08DE0FFDD6091F6298AE01CC0C9
:102380009EDDC1DC87E08093482ACF911F910F9199
:10239000FF90EF90DF90CF90BF90AF900895CC2347
:1023A00061F08091FB29823039F3833031F0813044
:1023B00001F76091F6298DE0DEDD8091F72982300A
:1023C000F9F6CF911F910F91FF90EF90DF90CF9092
:1023D000BF90AF908ACD8091482A893041F46FDD5B
:1023E00092DC87E08093482A8EDC81E0089580E0CB
:1023F0000895109221288091482A883039F45FDDB1
:1024000082DC87E08093482A81E0089580E0089587
:10241000FB0101900020E9F73197AF01461B570BF4
:10242000DC01ED91FC910280F381E02D09948F9203
:102430009F92AF92BF92EF92FF920F931F93CF9311
:10244000DF93CDB7DEB7A197CDBFDEBF7C01FA0128
:10245000CB0119A2223008F42AE08E010F5D1F4F34
:10246000822E912CB12CA12CBF01A50194010E94B8
:102470005E2BF901CA016A30ECF4605DD8016E93FD
:102480008D01232B242B252B79F790E080E01097EA
:1024900019F0BD01C701BCDFA196CDBFDEBFDF9142
:1024A000CF911F910F91FF90EF90BF90AF909F90B1
:1024B0008F900895695CE2CF8F929F92AF92BF9206
:1024C000CF92DF92EF92FF920F931F93CF93DF9300
:1024D0007C018B016C0182E0C80ED11C4701E5E054
:1024E0008E0E911CD0E0C0E0F60141916F0150E0EA
:1024F00070E060E02AE0C8019ADF5C016EE2C8018A
:102500004BD98A0D9B1DC80FD91FC814D90461F778
:10251000F701458150E070E060E02AE0C80187DF04
:102520008C0F9D1FDF91CF911F910F91FF90EF9026
:10253000DF90CF90BF90AF909F908F90089564E20E
:102540007EE966CFCF92DF92EF92FF920F931F93B7
:10255000CF93DF938C016B01770FEE08FF08F7FE36
:102560001CC06DE219D9EC0144275527BA014C195A
:102570005D096E097F092AE0C80159DFC80FD91F1C
:10258000C801DDDF8C0F9D1FDF91CF911F910F914F
:10259000FF90EF90DF90CF9008952AE0B701A60159
:1025A00046DFEC01EDCFCF93DF93C0912528D0918A
:1025B000262883E10E94980A61E070E0882311F0E8
:1025C00070E060E0CE01DF91CF91BCCF0F931F93FD
:1025D000CF93DF93EC01462F50E070E060E02AE0FB
:1025E00026DF8C01CE01ABDF800F911FDF91CF91F1
:1025F0001F910F9108950F931F93CF93DF93EC01D9
:10260000AB0170E060E02AE012DF8C01CE0197DFC1
:10261000800F911FDF91CF911F910F9108950F931C
:102620001F93CF93DF93EC01F3DE8C01CE0187DFA4
:10263000800F911FDF91CF911F910F9108950F93FC
:102640001F93CF93DF93EC01AED88C01CE0177DFDF
:10265000800F911FDF91CF911F910F9108958FE50A
:102660001DDD882359F080912028882369F06EECC5
:102670007FE08091252890912628E1CF82E035DC0B
:1026800010924A2A82E031CC08958FE307DD882337
:1026900059F080912028882369F06BEB7FE08091CE
:1026A000252890912628CBCF82E01FDC10924A2A61
:1026B00082E01BCC08958091482A833011F083E09A
:1026C00014DC61E08091F9290CDD882359F08091B8
:1026D0002028882339F065E97FE0809125289091B2
:1026E0002628ADCF08958091482A833011F083E0E9
:1026F000FCDB60E08091F929F4DC882359F08091BB
:102700002028882339F062E87FE080912528909185
:10271000262895CF0895CF9382E0E7DB84E190E00F
:102720000E94470B82E090E0D1DB80E9D4D981E0C0
:1027300090E0CCDB84E190E00E94470B11DAC82FD7
:1027400082E0D3DB6C2F80912528909126283EDFF4
:1027500080912028882341F06DE57DE08091252837
:1027600090912628CF916BCFCF91089584E196DC8C
:10277000882359F080912028882349F06DE37DE07B
:1027800080912528909126285ACF82E0AECB0895DB
:1027900011DB80912028882339F066E674E080916F
:1027A0002528909126284BCF0895CF92DF92EF9263
:1027B000FF920E94C00B6B017C0120EDC20E27E04E
:1027C000D21EE11CF11C88EDA89584BF8091000108
:1027D0008660809300018091010181FDFCCF0E9401
:1027E000C00B6C157D058E059F05C8F380912028D0
:1027F000882359F069EA73E0809125289091262872
:10280000FF90EF90DF90CF901ACFFF90EF90DF9086
:10281000CF9008958091F7298230B9F440E061E0CB
:1028200080E01ED986E990E00E94470B40E061E01D
:1028300081E016D980912028882339F06DE473E077
:102840008091252890912628FACE089560E0809105
:10285000F92947DC882359F080912028882381F0CA
:1028600064EF72E08091252890912628E8CE84E0DC
:1028700015DC8111F1CF34DC8111EECF82E035CB54
:10288000089561EC70E08091252890912628D7CE9C
:10289000BFCD8091202891E089278093202867E28E
:1028A0007EE98091252890912628F2DF80912528C5
:1028B00090912628209120286AE97EE9222311F0B0
:1028C0006EE87EE9ACCE61E37EE9809125289091A7
:1028D0002628DECFEF92FF920F931F93CF93DF93C3
:1028E000EC017B01FB0101900020E9F731978F019A
:1028F000061B170B88819981009729F02A813B815B
:102900002017310788F4B8016F5F7F4F0E94BA2CFF
:102910000097B9F0888399830A831B832C813D81BA
:10292000232B11F4FC0110820C831D83B7018881D5
:102930009981DF91CF911F910F91FF90EF900C94AF
:10294000952D88819981009711F00E94312C188271
:1029500019821C821D821A821B82DF91CF911F91E6
:102960000F91FF90EF900895BF92CF92DF92EF9278
:10297000FF920F931F93CF93DF93CDB7DEB72697C8
:10298000CDBFDEBF082FB62EC72E7A0110914B2A7D
:102990001093362910923529109234296FE78CED67
:1029A00099E214D8602F8CED99E210D88091F32829
:1029B000813069F48091F228811109C001E020E0A2
:1029C0004091342964EF78E2812F0E94260C109206
:1029D00035291092342980914B2A22EB38E220933A
:1029E000AE283093AF289091F328D12C913071F418
:1029F0009091F228DD24D394911108C001E02E2D8E
:102A000040E070E060E00E94260CD82E1092B128C1
:102A1000D092B0280B2D1C2DE00EF11E8091B12814
:102A2000D81651F08CED99E20E94AE0CF80181931A
:102A30008F01EE15FF0591F719821A821B821C8205
:102A40001D821E8264E37EE9CE01019643DF898107
:102A50009A810E94312C2696CDBFDEBFDF91CF91A7
:102A60001F910F91FF90EF90DF90CF90BF9008954E
:102A700025E0FC0111922A95E9F76FE57EE080914F
:102A8000252890912628DBCDE7E2F8E280E8DF01F7
:102A90001D928A95E9F71092A7280895CF93DF93A6
:102AA000C0912528D0912628009751F043E050E0AE
:102AB00060E47EE90E949C2D63E672E0892B61F060
:102AC0008091012A6DE972E0882331F061E07AE2B9
:102AD000CE01DF91CF91A3CDCE01DF91CF91AFCDCC
:102AE0001F93CF93DF93C0E011E080912528909150
:102AF0002628DC01ED91FC910084F185E02D0995FB
:102B0000892B09F4A9C0C111A7C0809125289091F3
:102B10002628DC01ED91FC910284F385E02D0995D6
:102B2000D82F8091A72887FD47C08091202888232F
:102B300049F0DA3061F06D2F809125289091262898
:102B40000E94CC0BDD3019F0C4F4DA30E1F480914E
:102B50000828811118C08091A728811116C0C09142
:102B60002528D091262890DF80912028882319F0ED
:102B7000CE01E5DCA8DEC0E0B8CFDB3109F444C00B
:102B8000DB3209F44DC08D2F44C0833038F1909171
:102B900027289B3219F5909128289B32F9F49091BF
:102BA000072891111BC080912928C1E0813211F4BE
:102BB0006BDFC3E0109207288091A72887FF95CF8D
:102BC000809127288B3231F4809128288B3211F4A0
:102BD000CC23A9F110931A28C2E087CF843010F4D7
:102BE000C2E0E8CF8091462A8823D1F345E050E047
:102BF00065E47EE987E298E20E949C2D892B81F7AB
:102C000010931C2841DFD6CF80910828882329F013
:102C10008BE143D910920828CFCF10930828CCCF4E
:102C200080910828882341F0109208288091A728D5
:102C3000823010F4109307288BE22FD9BDCF8091FA
:102C40002028882339F060EA70E08091252890914F
:102C50002628F5DC19DF49CF8C2FDF91CF911F910A
:102C60000895BF92CF92DF92EF92FF920F931F933E
:102C7000CF93DF93CDB7DEB72A97CDBFDEBF0097E6
:102C800009F44BC06BE47EE90E9437287C01DC012B
:102C90000D900020E9F76D01FD0101900020E9F79A
:102CA00031978F010A1B1B0B46E050E06EE47EE972
:102CB000002309F482C00E949C2D892B81F5F0909D
:102CC00020288FEF800F8F32F8F4E1E0FAE280E302
:102CD000DF011D928A95E9F7A8015527B601CF01BA
:102CE0000E94D22DFF2041F067E57FE080912528EA
:102CF000909126280E94D30B61E07AE280912528EA
:102D0000909126288CDC25C0FF2039F06FE17FE010
:102D1000809125289091262892DCB3DD1AC044E0EA
:102D200050E065E57EE9C7010E949C2D892B29F5BD
:102D30008FEF800F8F30D0F4E2E3FAE280E1DF0121
:102D40001D928A95E9F7A8015527B601CF010E9487
:102D5000D22D2A96CDBFDEBFDF91CF911F910F916B
:102D6000FF90EF90DF90CF90BF9008958091202842
:102D700061EF7EE0882389F2CBCF46E050E06AE540
:102D80007EE9C7010E949C2D892B39F6B9E0B01766
:102D900060F0C6010E9411286093422A7093432A72
:102DA0008093442A9093452AD4CF8091202865ECC3
:102DB0007EE0882309F4B1CFABCF0E949C2D892BF4
:102DC00009F49ACF46E050E061E67EE9C7010E942F
:102DD0009C2D892B41F46BE87EE080912528909111
:102DE00026282DDCB6CF44E050E065E57EE9C7013A
:102DF0000E949C2D892B19F462E37AE27FCF46E092
:102E000050E06AE57EE9C7010E949C2D892B09F0FC
:102E100084CF9091422A2091432A3091442A4091B4
:102E2000452A8AE08E010F5F1F4FF801582F11923B
:102E30005A95E9F74F933F932F939F9327E63EE9E7
:102E40003F932F931F928F931F930F930E94E12D17
:102E5000B8018091252890912628E1DBCDBFDEBF07
:102E600078CFCF93DF936BE47EE90E9437280097F9
:102E7000B9F0FC0101900020E9F73197E81BF90B4C
:102E8000349770F40E94F427C82F833050F068E61E
:102E90007EE08091252890912628DF91CF91CFCB9D
:102EA000C0E06BE47EE990E080E00E943728009764
:102EB00089F0FC0101900020E9F73197E81BF90B3C
:102EC000D0E0349718F40E94F427D82FCC2329F0AF
:102ED000C13089F0DF91CF9108958D2F0E947F0D31
:102EE00060E177E280E090E00E94930B80E0DF9168
:102EF000CF910C947F0D6FEF8FEF0E94010D40E09A
:102F00006FEF8D2F80950E94300D60E177E280E0B9
:102F100090E00E94930B8091F729823029F481E0A0
:102F2000DF91CF910C94750F86E0FACFCF93DF93AA
:102F3000EC01109221281092222810922328009749
:102F4000A1F0FC0101900020E9F73197E81BF90B93
:102F50003497A8F080912028882339F067ED72E03B
:102F600080912528909126286ADB8091FD29833065
:102F7000D9F481E08093A828DF91CF91089543E0B0
:102F800050E06DE67EE90E949C2D892B21F481E0C2
:102F900080932128EACF81E080932228CE010E94ED
:102FA000F42780932328E1CF61E08091F92999D813
:102FB0002091232840912228609121288091252862
:102FC00090912628DF91CF91D1C8EF92FF920F9375
:102FD0001F93CF93DF93DC01EC91E11109C0C1E0B5
:102FE0008C2FDF91CF911F910F91FF90EF9008955B
:102FF000E9017A018B01188219820E94F4278883E3
:1030000099838017910720F0C0E0E816F90640F791
:1030100038DCC0912028CC2311F36CED70E0809156
:103020002528909126280E94D30BA80170E060E02B
:103030002AE08091252890912628F9D966ED70E044
:1030400080912528909126280E94D30BB70180916A
:10305000252890912628CFDAC3CF0F931F93CF93C3
:10306000DF9300D0CDB7DEB7009709F16BE47EE9BE
:103070000E943728FC012081222319F19E012F5F35
:103080003F4F4EE750E060E670E09FDF81110FC0D8
:10309000898104D8882391F080912028882339F0F1
:1030A00068EA7FE08091252890912628C8DA0F9061
:1030B0000F90DF91CF911F910F91089580E80E94AA
:1030C000680D6BE47EE990E080E00E9437288C0177
:1030D000FC018081882359F384E00E94750FF80178
:1030E00001900020E9F73197BF01601B710BC80107
:1030F00002D985E00E94750FDACFCF93DF9300D01D
:10310000CDB7DEB7009709F43CC09E012F5F3F4F5B
:1031100042E050E070E060E058DF81112DC089810D
:103120008093462A80912028882331F164E77FE04C
:1031300080912528909126280E94D30B80912528E4
:103140009091262829813A8169E77EE9232B11F0A5
:1031500061E77EE99DDB89819A81029741F460E60F
:103160007FE080912528909126280E94D30B8091A2
:10317000252890912628E3D90F900F90DF91CF91C9
:1031800008956091462A80912528909126281EDA7C
:10319000F3CF1F93CF93DF9300D0CDB7DEB7009767
:1031A000C1F09E012F5F3F4F4EE150E070E060E0C4
:1031B0000CDF81110EC089819A812091F82928178E
:1031C000190669F45EDB809120286CE17EE08111B4
:1031D0002AC00F900F90DF91CF911F91089560E06A
:1031E0000E947110882329F111E080912028882302
:1031F00049F16AEF7DE080912528909126280E9470
:10320000D30B49815A8170E060E02AE08091252843
:10321000909126280CD91123B9F08091202861EFD4
:103220007DE08823B1F2809125289091262807DA45
:10323000D0CF89E00E944E108111D6CF0E9470102D
:10324000182FD3CF1111C5CF80912028882339F0B2
:1032500065EE7DE08091252890912628F0D90E9486
:103260008D1080912028882309F4B3CF6CEC7DE089
:10327000DACFEF92FF920F931F93CF93DF9300D09B
:1032800000D0CDB7DEB7009709F46FC06BE47EE9DC
:103290000E943728FC012081211124C06BE47EE9C3
:1032A00090E080E00E943728FC01208121112EC08F
:1032B00062E87EE990E080E00E9437288C01FC0102
:1032C0008081F12CE12C81112CC0DBDA8091202847
:1032D0006AEB7DE0882381F0809125289091262853
:1032E000AED90AC09E012F5F3F4F4FEF50E062E022
:1032F00070E06BDE882391F22496CDBFDEBFDF91B4
:10330000CF911F910F91FF90EF9008959E012D5F37
:103310003F4F40E355E770E060E057DE8111ECCFAE
:10332000C7CF89819A81E816F90630F7F801019034
:103330000020E9F73197BF01601B710BC8010E94A3
:103340007B116B817C8190E080E00E94930B20E0F8
:1033500040E06091F62980912528909126280E94CE
:10336000B610FFEFEF1AFF0ADCCF8BDA809120282E
:10337000882309F4C1CF67EA7DE0AECFCF93DF9316
:1033800000D0CDB7DEB7009769F19E012F5F3F4FA8
:1033900041E050E070E060E018DE811117C08981E3
:1033A0009A810097C1F00197C9F080912028882365
:1033B00069F080912528909126282091092861E9BB
:1033C0007EE9222311F065E87EE929D90F900F905C
:1033D000DF91CF91089510920928E7CF81E0809383
:1033E0000928E3CF6091092870E080912528909109
:1033F0002628A8D8EBCFCF93DF9300D0CDB7DEB788
:103400000097C1F09E012F5F3F4F42E050E070E017
:1034100060E0DBDD811109C0898180931F2888234A
:1034200021F010921E2810921D280F900F90DF910E
:10343000CF910895809120288823C9F061EA7DE02A
:1034400080912528909126280E94D30B20911F2837
:10345000809125289091262863E97DE0213031F084
:1034600067E87DE0223011F063E87DE0E8D8609104
:103470001F288091252890912628A8D8D6CFCF93B1
:10348000DF9300D0CDB7DEB70097B1F19E012F5F7B
:103490003F4F41E050E070E060E097DD811127C0D0
:1034A00089819A8121E0009709F420E020931D286A
:1034B000892B21F010921F2810921E28809120281D
:1034C0008823A9F06CE77DE080912528909126283B
:1034D0000E94D30B809125289091262829813A813A
:1034E0006AE97EE9232B11F06EE87EE998D80F9007
:1034F0000F90DF91CF91089560911D2870E0809129
:103500002528909126281ED8F2CF0F931F93CF9392
:10351000DF9300D0CDB7DEB7009799F19E012F5F02
:103520003F4F41E050E070E060E04FDD811122C08C
:1035300061E089819A81892B09F060E085E10E9430
:103540005A0A809120288823A9F066E77DE08091BF
:103550002528909126280E94D30B809125289091B0
:10356000262829813A816BEA7EE9232B11F06EE946
:103570007EE955D80F900F90DF91CF911F910F9159
:103580000895009125281091262885E10E94980A27
:1035900061E070E0882311F070E060E0C8010E94F3
:1035A000A212E8CFCF93DF9300D0CDB7DEB700975C
:1035B00029F19E012F5F3F4F4FE050E070E060E047
:1035C00004DD811116C089818093312A80912028E1
:1035D000882379F060E57DE0809125289091262868
:1035E0000E94D30B69817A818091252890912628A9
:1035F00002D80F900F90DF91CF9108958091312ADA
:10360000883010F01092312A6091312A809125285B
:10361000909126280E94E612ECCFCF93DF9300D042
:10362000CDB7DEB70097B9F19E012F5F3F4F41E064
:1036300050E070E060E0C9DC811128C089819A8186
:1036400021E0009709F420E020931E28892B21F027
:1036500010921F2810921D28809120288823B1F0F5
:1036600066E774E080912528909126280E94D30B6C
:10367000809125289091262829813A816AE97EE95E
:10368000232B11F06EE87EE90E940F130F900F902C
:10369000DF91CF91089560911E2870E080912528D8
:1036A000909126280E94A212F1CFCF93DF9300D0F1
:1036B000CDB7DEB719821A820097D9F09E012F5F2D
:1036C0003F4F4FEF50E070E060E07FDC811108C0B9
:1036D00089818093FC2986FF08C080E40E946B0DDD
:1036E0000F900F90DF91CF91089580E40E94680DB4
:1036F000F7CF6091FC2980912528909126280E947F
:10370000E612EECFAF92BF92CF92DF92EF92FF928E
:103710000F931F93CF93DF93CDB7DEB76197CDBFE4
:10372000DEBF5C01CE0101967C018FE0F7011192B2
:103730008A95E9F7188A198A670100E0A114B10493
:1037400011F58091F929898301E0670110E0C60134
:103750008E199F09801791070CF04DC060E0F601AB
:1037600081916F010E9471108823D1F180912028EE
:10377000882341F16FE873E08091252890912628F5
:103780000E941F131FC06BE47EE9C501002311F0E6
:1037900090E080E00E943728009791F09E01205F22
:1037A0003F4F4EE150E061E070E00FDC81110AC054
:1037B0008889F60181936F010F5F0F3021F7C5CF24
:1037C0000111C3CF6196CDBFDEBFDF91CF911F91B5
:1037D0000F91FF90EF90DF90CF90BF90AF90089542
:1037E00088E00E944E108111C1CF0E947010882382
:1037F00009F4ADCFBBCF82E00E94750F80912028E5
:10380000882301F366E773E0B7CFCF93DF9300D04F
:10381000CDB7DEB70097A9F19E012F5F3F4F43E080
:1038200050E070E060E0D1DB811133C089819A8182
:10383000892BA1F080912028882381F06BE272E02F
:1038400080912528909126280E941F1364EF71E033
:1038500080912528909126280E941F1389818093AA
:10386000FD29833010F41092A82880912028882305
:1038700081F068EE71E080912528909126280E94C1
:10388000D30B6091FD2980912528909126280E94D4
:10389000E6120F900F90DF91CF910895CF93DF93B1
:1038A00000D0CDB7DEB7009731F19E012F5F3F4FBB
:1038B0004FEF50E070E060E088DB811117C0898134
:1038C0008093002A80912028882381F06BEC71E09E
:1038D00080912528909126280E94D30B69817A81B6
:1038E00080912528909126280E94FB120F900F901E
:1038F000DF91CF9108956091002A062E000C770B7E
:1039000080912528909126280E94A212EFCFCF9374
:10391000DF9300D0CDB7DEB7009789F19E012F5F0E
:103920003F4F41E050E070E060E04FDB811122C08A
:1039300081E029813A81232B09F480E08093F529E5
:10394000809120288823B1F06EEA71E080912528CB
:10395000909126280E94D30B8091252890912628AB
:1039600029813A816AE97EE9232B11F06EE87EE92C
:103970000E940F130F900F90DF91CF9108956091E7
:10398000F52970E080912528909126280E94A212A6
:10399000F1CFCF93DF9300D0CDB7DEB70097A9F179
:1039A0009E012F5F3F4F41E050E070E060E00DDB93
:1039B000811120C089819A81009709F1019711F145
:1039C000809120288823B1F066E971E08091252854
:1039D000909126280E94D30B80912528909126282B
:1039E00029813A8166EC7EE9232B11F06BEB7EE9AD
:1039F0000E940F130F900F90DF91CF9108950E94B6
:103A00008D10DECF0E949A10DBCF61E070E08091D4
:103A1000F729823011F070E060E0809125289091C4
:103A200026280E94A212E6CFCF93DF9300D0CDB715
:103A3000DEB7009789F19E012F5F3F4F41E050E0D4
:103A400070E060E0C2DA811122C081E029813A8110
:103A5000232B09F480E08093F62980912028882385
:103A6000B1F062E871E080912528909126280E94AB
:103A7000D30B809125289091262829813A816AE9E3
:103A80007EE9232B11F06EE87EE90E940F130F9060
:103A90000F90DF91CF9108956091F62970E08091A9
:103AA0002528909126280E94A212F1CFCF93DF9370
:103AB00000D0CDB7DEB7009731F19E012F5F3F4FA9
:103AC00043E050E070E060E080DA811117C0898146
:103AD0008093FB2980912028882381F065E771E09D
:103AE00080912528909126280E94D30B69817A81A4
:103AF00080912528909126280E94FB120F900F900C
:103B0000DF91CF9108956091FB29809125289091B4
:103B100026280E94E612F2CFCF93DF9300D0CDB7D4
:103B2000DEB70097A1F19E012F5F3F4F40E05DE7B8
:103B300061E070E04ADA811125C089819A81809321
:103B4000FE299093FF29809120288823D9F06EE5E3
:103B500071E080912528909126280E94D30B4981FD
:103B60005A8170E060E02AE0809125289091262813
:103B70000E94171260E571E0809125289091262817
:103B80000E941F130F900F90DF91CF9108956091C5
:103B9000FE297091FF2980912528909126280E9466
:103BA000A212F0CFCF93DF9300D0CDB7DEB700974E
:103BB000D9F19E012F5F3F4F4EE150E061E070E090
:103BC00004DA811115C089819A812091F82928177A
:103BD000190699F40E94411480912028882341F00D
:103BE00064E171E080912528909126280E941F139E
:103BF0000F900F90DF91CF9108958093F9298091D4
:103C000020288823A9F364EF70E080912528909103
:103C100026280E94D30B69817A8180912528909172
:103C200026280E94FB12E4CF6091F9298091252873
:103C3000909126280E94E612DBCFCF92DF92EF927E
:103C4000FF920F931F93CF93DF93CDB7DEB7C0548E
:103C5000D109CDBFDEBF6C01FC0101900020E9F766
:103C600031978F01081B190BCE0101967C0180E46E
:103C7000F70111928A95E9F742E050E06DEC7EE998
:103C8000C7010E943A28003308F00FE2402F50E0AD
:103C9000B601C7010E94B42DC7010E943116C05C55
:103CA000DF4FCDBFDEBFDF91CF911F910F91FF900E
:103CB000EF90DF90CF900895CF92DF92EF92FF9236
:103CC0000F931F93CF93DF93CDB7DEB76497CDBF2C
:103CD000DEBF6C0110E000E0F12CF801EC57FB4F67
:103CE000E49023E12F1508F46FC08F2D90E03AE3A4
:103CF000E3125CC0E1E0F0E0EC0FFD1F8E0F9F1FB0
:103D0000FC011082C114D10439F0B601CE01019634
:103D10000E948C2D892BB9F561E874E080912528EB
:103D2000909126280E94D30BBE016F5F7F4F809138
:103D30002528909126280E9448146AE3809125281E
:103D4000909126280E94CC0B0F5F1F4FF801EC5773
:103D5000FB4FF4906EE774E080912528909126281F
:103D60000E94D30B6F2D80912528909126280E94C8
:103D7000CC0B6CE774E080912528909126280E9456
:103D8000D30BFF24FA940F5F1F4F083B38E0130753
:103D900008F4A3CF6496CDBFDEBFDF91CF911F9112
:103DA0000F91FF90EF90DF90CF90089521E030E0E9
:103DB0002C0F3D1F820F931FFC01E082F3942AE039
:103DC000E212E1CFF12CDFCFFFEFFF12F8CF6E2D23
:103DD00080912528909126280E94CC0BF0CF6F92DD
:103DE0007F928F929F92AF92BF92CF92DF92EF928B
:103DF000FF920F931F93CF93DF93CDB7DEB76397F7
:103E0000CDBFDEBF4C011A8A188A198A1B8A8E011F
:103E10000F5F1F4F6E0180E1C80ED11CF8015801E1
:103E20001192CE16DF06E1F7F12C8114910409F00E
:103E30008DC08091F9298983E12CFF24F3948FE3CD
:103E40000E944E108111ADC08091F829805E0E94C1
:103E50004E108111A6C088E10E944E108111A1C0B0
:103E600010E000E0CF2CD12C0C151D050CF0FEC08D
:103E7000EE2009F4ADC0088B198B888999892091AF
:103E8000F8292817190609F442C0805C0E944E10D8
:103E9000811187C085E00E94750F0E94830EAE01DC
:103EA0004D5E5F4F60E0CE0142960E94DD0D0197AE
:103EB00009F0C6C084E00E94750F8EE1F81290C030
:103EC0008A8986FF24C067E274E08091252890915A
:103ED00026280E94D30BA801110F660B770B2AE04E
:103EE00080912528909126280E94171265E274E09F
:103EF00080912528909126280E94D30B6A89809171
:103F00002528909126280E94E6120EE110E00F5F0E
:103F10001F4FAACFF30101900020E9F73197E6196E
:103F2000F7093397B0F596014EE150E061E070E09B
:103F3000C3014BD8E82E811134C08889F8018193E0
:103F40008F01F394FFE0FF1609F479CF6BE47EE96B
:103F5000C401FF2011F090E080E00E9437283C016E
:103F6000009789F143E050E065ED7EE90E94C42DA1
:103F7000892B81F6E0902028EE2039F16EE374E081
:103F800080912528909126280E941F138EE1F82EFB
:103F900056CF0E944114809120286CE274E0811178
:103FA00086C06396CDBFDEBFDF91CF911F910F9189
:103FB000FF90EF90DF90CF90BF90AF909F908F9049
:103FC0007F906F900895E12C3ACFEE24E394DECFFA
:103FD000F501E00FF11F808190E0888B998B4DCF28
:103FE0006A8980912528909126280E94E612809166
:103FF0002028882319F16EE074E0809125289091A3
:1040000026280E94D30B4A8950E070E060E02AE045
:1040100080912528909126280E94171263EF73E063
:1040200080912528909126280E94D30B6889798950
:1040300080912528909126280E94FB12860167CF47
:1040400080912028882309F462CF6EEC73E0809180
:104050002528909126280E94D30B68897989809120
:104060002528909126280E94FB1251CFEE2031F096
:1040700080912528909126280E949F1289E10E9414
:104080004E1081118ECF8FE50E944E10811189CF85
:104090008FE30E944E10811184CF82E00E94750F41
:1040A00080912028882309F47CCF67EB73E080910E
:1040B0002528909126280E941F1373CF85ED9EE935
:1040C0008ECECF93DF93EC0185E10E94980A811197
:1040D00031C0209769F043E050E065ED7EE9CE0104
:1040E0000E94C42D892B31F5DF91CF910C946F0D77
:1040F00060E08091F9290E947110882369F0809115
:104100002028882391F069E373E08091252890911D
:1041100026280E941F1309C081E00E944E108111C1
:10412000EECF0E9470108111EACF82E0DF91CF9133
:104130000C94750FDF91CF910895CF93DF93EC012D
:1041400085E10E94980A811116C02097C9F043E0CA
:1041500050E065ED7EE9CE010E94C42D892B59F413
:1041600081E10E944E10882331F0809120286BE17C
:1041700073E0811112C082E0DF91CF910C94750F32
:1041800060E08091F9290E947110882369F0809184
:104190002028882381F367E073E08091252890919F
:1041A00026280E941F13E7CF81E10E944E10811143
:1041B000EECF0E9470108823F1F2E9CF1F920F9288
:1041C0000FB60F9211248F939F93AF93BF9380915B
:1041D000AA289091AB28A091AC28B091AD28019667
:1041E000A11DB11D8093AA289093AB28A093AC2861
:1041F000B093AD2881E08093A60ABF91AF919F91C3
:104200008F910F900FBE0F901F9018951F920F92D5
:104210000FB60F9211242F933F934F935F936F9399
:104220007F938F939F93AF93BF93EF93FF9387E316
:1042300099E20E940B09FF91EF91BF91AF919F917D
:104240008F917F916F915F914F913F912F910F903F
:104250000FBE0F901F9018951F920F920FB60F92DE
:1042600011242F938F939F93EF93FF93E091432912
:10427000F0914429818181FD1BC0908180914D295D
:104280008F5F8F7320914E29821741F0E0914D2965
:10429000F0E0E95CF64D958F80934D29FF91EF9109
:1042A0009F918F912F910F900FBE0F901F90189597
:1042B0008081F4CF1F920F920FB60F9211242F938B
:1042C0003F934F935F936F937F938F939F93AF939E
:1042D000BF93CF93EF93FF93C091AB08C2FF0AC087
:1042E0001092102810920F2810920E2884E00E943D
:1042F000740C12C0C6FF2DC080910D28813041F48E
:104300008091102890E0F0E0E0E0099510920D28EF
:10431000C0FF14C00E94810CFF91EF91CF91BF911B
:10432000AF919F918F917F916F915F914F913F914D
:104330002F910F900FBE0F901F90189580E48093DF
:10434000AB0881E00E94740C8091AB0885FFE4CF3C
:10435000E1CFC7FF50C0C3FF08C0109210281092D1
:104360000F2810920E2883E0C2CF8091A9088066A2
:104370008093A9088091AB0881FF26C080910F2807
:10438000882349F08091AB0884FF05C082E08093C8
:10439000AA0881E0ACCF90910F2880910E28981741
:1043A00078F4E0910F28F0E080818093AD0880914F
:1043B0000F288F5F80930F2883E08093AA08ACCFEB
:1043C00082E08093AA0893CF9091102880910C28C6
:1043D000981760F48091AD08E0911028F0E0808398
:1043E000809110288F5F80931028E6CF86E080931D
:1043F000AA0882E07CCF85E07ACF1F920F920FB699
:104400000F9211242F933F938F939F93EF93FF93DA
:104410008091A508982F9C70C9F08091A50894E020
:1044200082FF93E0909317288093A50881E0809302
:10443000F3281092F228FF91EF919F918F913F9175
:104440002F910F900FBE0F901F90189586FF4CC0B4
:1044500020911428909113288091A50884FF10C002
:1044600080911228882351F083E08093A40885E08E
:10447000809317281092F22881E031C081E0F5CFB7
:1044800080911828821790F4E091182880911528BF
:1044900090911628E80FF92FF11D80818093A808CC
:1044A000809118288F5F80931828C5CF8091192894
:1044B000891748F484E08093F32880911128816063
:1044C0008093A708B8CF80911228882359F083E001
:1044D0008093A40881E0809317281092F22880939B
:1044E000F328A9CF81E0F4CF87FF3DC09091192830
:1044F000809113289817D8F48091A808E091192882
:104500002091AE283091AF28E20FF32FF11D808368
:10451000809119288F5F809319289091132880919A
:1045200019288917C0F482E08093A40884CF809171
:104530001228882371F087E08093A40882E080939A
:1045400017281092F22881E08093F3281092132804
:1045500072CF85E0F1CF80911228882311F087E097
:10456000B7CF85E0B5CF86E083CF1092392910927E
:104570003A2988EE93E0A0E0B0E080933B29909345
:104580003C29A0933D29B0933E2980EE9DE980937C
:1045900037299093382980E098E0809343299093BD
:1045A000442981E080934529109246291092472999
:1045B00095E09093482994E09093492980934A2963
:1045C00010924B2910924C2910924D2910924E298D
:1045D00010924F291092502982E180935129109214
:1045E00052291092532940E856E968E970E080E0CA
:1045F0008F5F863011F487E00BC0769567955795ED
:104600004795413099E059079DE36907710580F7A7
:1046100094E09093D529982F9095292F217030E020
:1046200094E0220F331F9A95E1F78162822B8093E9
:10463000D4298EEF9DE98093D6299093D7291092A3
:10464000D8291092D9291092DA291092DB291092D8
:10465000DE291092DF2988EE93E0A0E0B0E080939D
:10466000E0299093E129A093E229B093E32984E023
:104670009EE98093DC299093DD291092EA2910921B
:10468000EB2986E19EE98093E8299093E92910922D
:10469000EC291092ED291092EE291092EF298FEF5C
:1046A0008093F42980E580934B2A10924C2A81E074
:1046B00080934D2A1092482A0E9454081092482A4A
:1046C00010924A2A0895CF93DF93CDB7DEB7609753
:1046D000CDBFDEBF88ED90E084BF909361008091F4
:1046E00002068660809302068091000681608093B6
:1046F0000006809102068F7C8065809302061092EE
:10470000E20582E08093E40581E08093030A8EEF66
:104710008093270A8093260A80E880932D0A80934D
:104720002B0A8093290A80932C0A80932A0A80936B
:10473000280A8BE08093000A87E08093E505E0E893
:10474000FAE037E02EEF90E885E031832487958703
:1047500080837096E03C4AE0F407B9F71092A10A12
:104760008FE19EE48093AC0A9093AD0A8091A50AF4
:1047700081608093A50A1092A00A8091A00A8160AE
:104780008093A00A789488EDA89584BF8091000159
:10479000807F8093000161E087E00E94F90960E07A
:1047A00087E00E945A0A0E94441540E052EC61E002
:1047B00070E087E399E20E94400F87E399E28093DB
:1047C00025289093262819821A828E010F5F1F4F89
:1047D000C8010E94A10E89819A81019691F1CE01B2
:1047E00007960E94A10EE5EFCE2EE9E2DE2EF2E062
:1047F000EF2EF12CE982FA82C8010E94910EF60197
:1048000081936F01FFEFEF1AFF0A25E5E216F1042D
:1048100089F70E9464082F8138858217930789F0F1
:10482000F12CE12C6FEFC7010E94C10E4FEFE41A8B
:10483000F40AE11482E0F806A9F70E9454080E94E5
:10484000DA0E8091F729823009F0DFC00E949A10B9
:104850001092B1281092B028109235291092342964
:104860008091F328811120C08091E305807309F0C5
:10487000CFC062E082E00E94F90962E083E00E941A
:10488000F90981E08093F3281092192810921828D2
:104890001092F2281092172891EC9093A30895E5B6
:1048A0009093A6088093A50846E050E0BE01695F9A
:1048B0007F4F8AE79FE70E94B41419821A821B82F5
:1048C0001C821D821E8269ED7EE9C8010E946A1465
:1048D00089819A81C6D744E050E0BE01635F7F4F73
:1048E0008AEF9FE70E94B41419821A821B821C82ED
:1048F0001D821E826BEE7EE9C8010E946A148981C6
:104900009A81AFD76BEF7EE987E399E20E94481462
:10491000DE0117966D01F12CE12CF60141916F013A
:1049200050E070E060E020E18091252890912628F9
:104930000E941712FFEFEF1AFF0A8091252890912D
:10494000262826E0E216F10409F06FC00E949F12AB
:104950006BE07FE980912528909126280E944814D9
:10496000CE010D966C01F12CE12CD6014D916D011B
:1049700050E070E060E020E18091252890912628A9
:104980000E941712BFEFEB1AFB0A80912528909125
:104990002628E4E0EE16F10409F04CC00E949F12B4
:1049A0008091252890912628DC01ED91FC910680CC
:1049B000F781E02D099536E0432E45E0742E50E254
:1049C000652E60E4562E77E0F72EEE24E394809176
:1049D000A928813009F085C08091A828882321F07A
:1049E0001092A8280E9460108091A728E7E2F8E2C0
:1049F00090E0AC01425051099F01275238422417E0
:104A00003507ECF422812193F7CF0E948D1020CF3F
:104A10008091E3058073803209F033CF62E080E15A
:104A20000E94F90962E081E12ACF69E07FE90E94F2
:104A3000481473CF69E07FE90E94481496CFFC01C7
:104A4000EB5DF74D10828A5D974DFC0110828091DD
:104A50002028882331F080912528909126280E94D3
:104A60009F1280912728882399F18D3089F18A300F
:104A700079F16BE47EE987E298E2F9D26C0128E2F1
:104A8000822E2CE9922EB12CA12CB601D4018D914D
:104A90009C910E94792D892B09F485C2BFEFAB1A36
:104AA000BB0AE6E08E0E911CFCE2AF16B10469F77A
:104AB0000E9441140DC0D6010D900020E9F7CD01F0
:104AC0000480F581E02D2C91222309F4D7C00995AB
:104AD0000E9444151092A9288091202881110E94DB
:104AE00063148091F729823009F080C08091A92851
:104AF000823009F0CEC0D090A728ED2DF0E0EA5D1D
:104B0000F74D80818F3311F4E092242880914A2A56
:104B1000811105C060E08091F9290E9471106D2D0E
:104B200087E298E20E947B1180911A289091F729E0
:104B3000923009F0A6C08111A7C00E946010809138
:104B4000202881110E9463140E9444151092A92804
:104B50008091FD29813009F09AC020E040E0609109
:104B6000F62980912528909126280E94B6109091D0
:104B7000FD29923081F490912428992361F020E05E
:104B800040E06091F62980912528909126280E9486
:104B9000B610109224289091FD299330A1F49091A1
:104BA000A828992381F09091A92891110CC02091F7
:104BB00023284091222860912128809125289091D6
:104BC00026280E94B610882361F08091202888232F
:104BD00041F068E270E180912528909126280E949A
:104BE0001F138091F729823009F4DCC080911F28BF
:104BF000882309F453C089E00E94750F80911F2813
:104C0000882309F4ADC18091252890912628DC01E4
:104C1000ED91FC910084F185E02D0995892B71F3CC
:104C200080911F28813071F4809125289091262849
:104C3000DC01ED91FC910284F385E02D099560E0A3
:104C40000E94BB0F80911F288230C1F60E94701510
:104C50008093A928813009F483C1823079F6D12C60
:104C60008091A728D816B8F4ED2DF0E0E95DF74D56
:104C700060E080810E94BB0FD394F2CF90E080E08F
:104C800026CF882309F45BCF10921A2858CF80E0F2
:104C90006ECF80E080CF0E944415B0CF80911E2857
:104CA0008823B9F11F82198288E00E94750F8091D4
:104CB0001E28882309F454C1A80160E0CE0107969C
:104CC0000E94DD0D019761F480912528909126289E
:104CD000DC01ED91FC910190F081E02D6F8109954F
:104CE0008091252890912628DC01ED91FC9100848B
:104CF000F185E02D0995892BD1F20E9470158093E2
:104D0000A928813009F42CC1823089F60E9444150B
:104D1000CECF84E10E94980AB82E811139C0F801E3
:104D2000272D11922A95E9F71D861F8288E00E949F
:104D3000750FD12CA12C84E10E94980A81111EC00C
:104D400042E24A15D8F0AE01495F5F4F60E0CE0104
:104D50000D960E94DD0D019789F48D858F3341F00A
:104D60008F3549F0F801EA0DF11D8083A394E3CF5C
:104D70006894D0F8E0CF6894D1F8DDCF90901D28EA
:104D8000992009F460C00E94731186E00E94750F9B
:104D900080911D28882331F08091A928823011F458
:104DA0000E94441580911C288823A9F18091462AED
:104DB000813041F462E37AE280912528909126289F
:104DC0000E940F138091462A823019F562E37AE23D
:104DD00080912528909126280E94481467E17FE958
:104DE00080912528909126280E944814C09025285B
:104DF000D09026284091422A5091432A6091442A1B
:104E00007091452A2AE0C6010E941712C6010E942D
:104E10009F1210921C288091252890912628DC0151
:104E2000ED91FC910084F185E02D0995892B21F00D
:104E30000E9470158093A92885E090E00E94470B9E
:104E40000E94C909C4CDD0FE06C00E94F91181118B
:104E500002C0E894D0F8D1FC0E94EB11AA2009F41A
:104E600094CF6801D6018D916D01882381F08D87E3
:104E70009091F929282F2625921330C088E00E94AE
:104E8000750F992493948C2D801B8A1558F39920C3
:104E900009F47BCFB11039C080911B28882309F415
:104EA00069C010921B288091482A893019F089E046
:104EB0000E94750F60E08091FC290E94BB0F0E9448
:104EC0005F0F0E94830EF092482A8091FC298F7B0D
:104ED0008093FC2980E40E94680D5ACF282F252555
:104EE000921302C089E0CBCF803268F6883129F472
:104EF000E0921B2898E1B92EC6CFB82E893119F659
:104F000010921B2889E1B82EBECFB9E0BB1679F10B
:104F1000BB15F8F0E4E0BE123BCF80912028882337
:104F200041F06BE170E180912528909126280E9444
:104F30001F130E94D51380912028882309F428CFBD
:104F40006DE070E180912528909126280E941F1322
:104F50001FCFF8E1BF1609F4A6CF29E1B21218CF8E
:104F60000E945F0F0E94830EF092482A11CF0E9488
:104F70009A100ECF8091482A883091F0893009F03C
:104F800007CF8091A928823031F46091A72887E269
:104F900098E20E947B110E9444151092A928E0CF4C
:104FA0000E947311DDCF4A9CF0014B9CF00D11243F
:104FB000E85DF3468091F72990E0228133818223D6
:104FC0009323892B09F077CD0E94411480912028EA
:104FD000882309F47DCD61EE7FE0809125289091B2
:104FE00026280E941F1374CDFC0188279927E89476
:104FF00021912032E9F3293010F02E30C8F32B3202
:1050000039F02D3231F4689403C084D0820F911DA1
:10501000219120532A30C8F31EF4909581959F4F1B
:1050200008951F93FC0199278827BC01E8941191EA
:105030001032E9F3193010F01E30C8F31B3249F07A
:105040001D3241F4689405C050D0610F711D811D5F
:10505000911D119110531A30B8F33EF4909580953C
:10506000709561957F4F8F4F9F4F1F9108954EE42C
:105070005AE214C0DC01FB014150504058F049F0A5
:1050800001900D920020C1F7E61BF70B3197CF017D
:1050900008951C9201900020E9F7F6CFFA01A19142
:1050A000B081009719F41097E1F0CD01DC01CD013A
:1050B0000D90002011F4C00113C0FB0121912223A7
:1050C00019F02015D9F7F3CFFB012191201519F420
:1050D0001E92119606C02223C1F70D900020A1F761
:1050E000D001FA01A193B0830895592F482F372F8B
:1050F000262F660F771F881F991F660F771F881F3F
:10510000991F620F731F841F951F660F771F881FDB
:10511000991F08957AE0979F902D879F802D910D7C
:1051200011240895ABE0B0E0E7E9F8E296C27C0113
:105130003B018A01FC0116821782838181FFBAC17B
:10514000CE0101965C01F7019381F30193FD8591F6
:1051500093FF81913F01882309F449C1853239F4D5
:1051600093FD859193FF81913F01853221F4B70131
:1051700090E0B9D1E8CF912C212C312CFFE1F3152F
:1051800038F08B3211F190F4803209F1833229F139
:1051900037FC3CC020ED280F2A3050F536FE20C0E9
:1051A0008AE0989E200D1124922E06C08D3291F037
:1051B000803371F7689430F8F30193FD859193FF84
:1051C00081913F018111DACF21C0689431F8689450
:1051D00032F8F2CF689433F8EFCF689434F8ECCF1C
:1051E000EAE02E9E200D1124222E689435F8E4CF9B
:1051F0008E3229F436FCFBC0689436F8DDCF8C364D
:1052000019F4689437F8D8CF8836B1F2982F9F7D7B
:1052100095549330D8F0833691F18337B1F18335CB
:1052200009F05EC02801F2E04F0E511CF801C08069
:10523000D180692D70E036FC02C06FEF7FEFC601B0
:105240003CD14C01689437F882010AC00C5F1F4FB3
:10525000FFE3F98388248394912C6501E89437F85F
:1052600033FE2AC0522C8114910459F5552009F4BB
:105270006ACFB70180E290E036D15A94F7CFF801B7
:10528000808189830E5F1F4FE5CF2801F2E04F0E2A
:10529000511CF801C080D180692D70E036FC02C03D
:1052A0006FEF7FEFC60114D14C018201D7CFB70158
:1052B00080E290E018D12A942814190409F0B8F774
:1052C000D1CFF60137FC859137FE81916F01B7018F
:1052D00090E009D151105A94F1E08F1A9108C3CF90
:1052E000843619F0893609F073C0F80137FE67C0BB
:1052F00060817181828193810C5F1F4FF32DFF7656
:105300003F2E97FF09C090958095709561957F4FCE
:105310008F4F9F4F689437F82AE030E0A50113D1F2
:10532000C82ECA188C2C432C36FE0CC0E89440F8CA
:10533000C91440F434FE05C032FC03C0F32DFE7ED8
:105340004F2E892C44FE90C0FE01EC0DF11D808192
:10535000803309F082C0242D297E422E842D88704E
:10536000582E43FC8FC040FE89C09C2C821418F438
:105370002C0C922C981844FE8BC0B70180E390E06F
:10538000B2D042FE08C088E790E041FE02C088E546
:1053900090E0B701A8D0C91408F486C0CA94D12CF3
:1053A0009FEFC91AD90ACA0CDB1CF60182916F0162
:1053B000B70190E098D0AC14BD04B9F757CF608125
:1053C0007181072E000C880B990B0E5F1F4F96CF33
:1053D000D32CE894D4F82AE030E0853731F1232D3E
:1053E000297FD22E8F36F9F040F48835A1F0F701ED
:1053F000868197812B96E2E149C1803749F0883751
:10540000B1F7D4FE02C06894D2F820E130E00DC0BC
:105410006894D4F8F6CF34FE03C0822F8660D82E6D
:1054200020E132E002C028E030E0F801D7FE0EC0F3
:1054300060817181828193810C5F1F4FA50183D0B0
:10544000C82ECA183D2CE89437F86CCF6081718162
:1054500090E080E00E5F1F4FF1CF42FC02C08394CA
:105460007DCF839483947ACF842D867809F476CF88
:10547000F6CFB70180E290E036D083948214C8F36F
:10548000512C79CF522C5818821408F474CFF8CFCD
:10549000842D867809F47FCF8BE241FE80E247FCC1
:1054A0008DE2B70190E076CFB70180E390E01BD0AA
:1054B0009A9471CF8FEF9FEF9DCFFC0105906150C3
:1054C00070400110D8F7809590958E0F9F1F08951A
:1054D000FC016150704001900110D8F780959095C3
:1054E0008E0F9F1F08950F931F93CF93DF93182F55
:1054F000092FEB018B8181FD09C01FEF0FEF812F79
:10550000902FDF91CF911F910F91089582FF14C0CA
:105510002E813F818C819D81281739073CF4E881D9
:10552000F981CF0101968883998310838E819F81B1
:1055300001968E839F83E3CFE885F985812F0995B6
:10554000892BA1F3DACFFA01AA27283051F12031B3
:1055500081F1E8946F936E7F6E5F7F4F8F4F9F4F07
:10556000AF4FB1E03ED0B4E03CD0670F781F891F49
:105570009A1FA11D680F791F8A1F911DA11D6A0F17
:10558000711D811D911DA11D20D009F468943F91CA
:105590002AE0269F11243019305D3193DEF6CF01C9
:1055A0000895462F4770405D4193B3E00FD0C9F78F
:1055B000F6CF462F4F70405D4A3318F0495D31FDFC
:1055C0004052419302D0A9F7EACFB4E0A69597954F
:1055D000879577956795BA95C9F700976105710525
:1055E00008959B01AC010A2E06945795479537956F
:1055F0002795BA95C9F7620F731F841F951FA01DC9
:105600000895052E97FB16F400940FD057FD05D092
:1056100055D007FC02D046F408C05095409530950F
:1056200021953F4F4F4F5F4F08959095809570950E
:1056300061957F4F8F4F9F4F089562D0A59F900D2A
:10564000B49F900DA49F800D911D11240895B7FF64
:10565000F4CFF3DF821B930B08952F923F924F926A
:105660005F926F927F928F929F92AF92BF92CF92F2
:10567000DF92EF92FF920F931F93CF93DF93CDB7FB
:10568000DEB7CA1BDB0BCDBFDEBF09942A88398881
:1056900048885F846E847D848C849B84AA84B984CA
:1056A000C884DF80EE80FD800C811B81AA81B981D6
:1056B000CE0FD11DCDBFDEBFED010895A1E21A2EA0
:1056C000AA1BBB1BFD010DC0AA1FBB1FEE1FFF1FA6
:1056D000A217B307E407F50720F0A21BB30BE40BF6
:1056E000F50B661F771F881F991F1A9469F760953D
:1056F0007095809590959B01AC01BD01CF010895F7
:10570000A29FB001B39FC001A39F700D811D112402
:10571000911DB29F700D811D1124911D0895EE0FF2
:10572000FF1F0590F491E02D09940F931F93CF93E1
:10573000DF938230910510F482E090E0E091522AEC
:10574000F091532A30E020E0B0E0A0E0309799F4E7
:105750002115310509F44AC0281B390B24303105C5
:10576000D8F58A819B816115710589F1FB018283DE
:105770009383FE0111C0408151810281138148173A
:105780005907E0F04817590799F4109761F01296FD
:105790000C93129713961C933296CF01DF91CF9101
:1057A0001F910F9108950093522A1093532AF4CF1A
:1057B0002115310551F04217530738F0A901DB01DB
:1057C0009A01BD01DF01F801C1CFEF01F9CF80934C
:1057D000522A9093532ACDCFFE01E20FF31F8193FB
:1057E00091932250310928833983D7CF2091502AB1
:1057F0003091512A232B41F4209102283091032823
:105800002093502A3093512A20910028309101286A
:105810002115310541F42DB73EB740910428509130
:105820000528241B350BE091502AF091512AE217EC
:10583000F307A0F42E1B3F0B2817390778F0AC01B3
:105840004E5F5F4F2417350748F04E0F5F1F4093A0
:10585000502A5093512A819391939FCFF0E0E0E03A
:105860009CCFCF93DF930097E9F0FC01329712822F
:105870001382A091522AB091532AED0130E020E02A
:105880001097A1F420813181820F931F2091502A1B
:105890003091512A2817390709F061C0E093502A46
:1058A000F093512ADF91CF910895EA01CE17DF07D7
:1058B000E8F54A815B819E0141155105B1F7E90187
:1058C000EA83FB8349915991C40FD51FEC17FD075B
:1058D00061F4808191810296840F951FE90188838C
:1058E0009983828193818A839B83F0E0E0E0129622
:1058F0008D919C9113970097B9F52D913C9111973B
:10590000CD010296820F931F2091502A3091512A87
:105910002817390739F6309751F51092522A10920C
:10592000532AA093502AB093512ABCCFC283D38369
:1059300040815181840F951FC817D90761F44E5FCC
:105940005F4F88819981480F591F408351838A8115
:105950009B81828393832115310509F0B0CFE093B9
:10596000522AF093532A9ECFFD01DC01C0CF128250
:105970001382D7CFB0E0A0E0EFEBFCE270CE8C0159
:10598000009741F4CB01D1DE8C01C801CDB7DEB761
:10599000E0E17ECEFC01E60FF71F9C0122503109A9
:1059A000E217F30708F499C0D901CD91DC91119762
:1059B000C617D70790F0C530D10538F3CE0104974C
:1059C0008617970710F3C61BD70B2297C193D19365
:1059D0006D937C93CF0145DFD8CF5B01AC1ABD0A34
:1059E0004C018C0E9D1EA091522AB091532A512C2D
:1059F000412CF12CE12C109731F58091502A909197
:105A0000512A8815990509F05CC04616570608F01A
:105A100058C08091002890910128009741F48DB7DB
:105A20009EB74091042850910528841B950BE817D8
:105A3000F90708F052C0E093502AF093512AF90177
:105A400060837183A2CF8D919C91119712966C9077
:105A5000129713967C901397A815B90559F56C0108
:105A600042E0C40ED11CCA14DB0420F1AC014A1977
:105A70005B09DA011296159780F062827382408387
:105A80005183D9016D937C93E114F10471F0D70136
:105A90001296ED93FC93139778CF22968C0F9D1F4F
:105AA000F90180839183F301EFCFE093522AF093C1
:105AB000532A6BCF4816590608F42C017D01D301F7
:105AC0009ACFCB0132DE7C01009739F0AE01B801EC
:105AD00007D0C801C6DE870158CF10E000E055CFDF
